{
  "contractName": "Shop",
  "abi": [
    {
      "inputs": [],
      "payable": false,
      "stateMutability": "nonpayable",
      "type": "constructor"
    },
    {
      "anonymous": false,
      "inputs": [
        {
          "indexed": false,
          "internalType": "string",
          "name": "name",
          "type": "string"
        },
        {
          "indexed": false,
          "internalType": "uint256",
          "name": "price",
          "type": "uint256"
        },
        {
          "indexed": false,
          "internalType": "uint256",
          "name": "subtotal",
          "type": "uint256"
        },
        {
          "indexed": false,
          "internalType": "uint256",
          "name": "cartItemsCount",
          "type": "uint256"
        }
      ],
      "name": "addItemToCartEvent",
      "type": "event"
    },
    {
      "constant": true,
      "inputs": [
        {
          "internalType": "address",
          "name": "",
          "type": "address"
        },
        {
          "internalType": "uint256",
          "name": "",
          "type": "uint256"
        }
      ],
      "name": "cart",
      "outputs": [
        {
          "internalType": "uint256",
          "name": "wineid",
          "type": "uint256"
        },
        {
          "internalType": "uint256",
          "name": "wineprice",
          "type": "uint256"
        }
      ],
      "payable": false,
      "stateMutability": "view",
      "type": "function"
    },
    {
      "constant": true,
      "inputs": [],
      "name": "cartitemCount",
      "outputs": [
        {
          "internalType": "uint256",
          "name": "",
          "type": "uint256"
        }
      ],
      "payable": false,
      "stateMutability": "view",
      "type": "function"
    },
    {
      "constant": true,
      "inputs": [],
      "name": "name",
      "outputs": [
        {
          "internalType": "string",
          "name": "",
          "type": "string"
        }
      ],
      "payable": false,
      "stateMutability": "view",
      "type": "function"
    },
    {
      "constant": true,
      "inputs": [],
      "name": "price",
      "outputs": [
        {
          "internalType": "uint256",
          "name": "",
          "type": "uint256"
        }
      ],
      "payable": false,
      "stateMutability": "view",
      "type": "function"
    },
    {
      "constant": true,
      "inputs": [
        {
          "internalType": "address",
          "name": "",
          "type": "address"
        }
      ],
      "name": "subtotal",
      "outputs": [
        {
          "internalType": "uint256",
          "name": "",
          "type": "uint256"
        }
      ],
      "payable": false,
      "stateMutability": "view",
      "type": "function"
    },
    {
      "constant": true,
      "inputs": [],
      "name": "wineCount",
      "outputs": [
        {
          "internalType": "uint256",
          "name": "",
          "type": "uint256"
        }
      ],
      "payable": false,
      "stateMutability": "view",
      "type": "function"
    },
    {
      "constant": true,
      "inputs": [
        {
          "internalType": "uint256",
          "name": "",
          "type": "uint256"
        }
      ],
      "name": "wines",
      "outputs": [
        {
          "internalType": "uint256",
          "name": "vin_ID",
          "type": "uint256"
        },
        {
          "internalType": "string",
          "name": "vin_Name",
          "type": "string"
        },
        {
          "internalType": "string",
          "name": "vin_Des",
          "type": "string"
        },
        {
          "internalType": "uint256",
          "name": "vin_Price",
          "type": "uint256"
        },
        {
          "internalType": "uint256",
          "name": "inv_Qty",
          "type": "uint256"
        }
      ],
      "payable": false,
      "stateMutability": "view",
      "type": "function"
    },
    {
      "constant": false,
      "inputs": [
        {
          "internalType": "uint256",
          "name": "_cart_item_id",
          "type": "uint256"
        }
      ],
      "name": "addToCart",
      "outputs": [
        {
          "internalType": "bool",
          "name": "",
          "type": "bool"
        }
      ],
      "payable": false,
      "stateMutability": "nonpayable",
      "type": "function"
    }
  ],
  "bytecode": "0x608060405234801561001057600080fd5b50336000806101000a81548173ffffffffffffffffffffffffffffffffffffffff021916908373ffffffffffffffffffffffffffffffffffffffff1602179055506100d06040518060400160405280600f81526020017f4475636b686f726e204d65726c6f7400000000000000000000000000000000008152506040518060400160405280602081526020017f4e6170612056616c6c65792054687265652050616c6d732056696e657961726481525060016103e861013960201b60201c565b506101336040518060400160405280600881526020017f4b20537972616820000000000000000000000000000000000000000000000000815250604051806060016040528060238152602001610c5d6023913960026105dc61013960201b60201c565b506102ac565b6000600a60055410156101fa576005600081548092919060010191905055506040518060a001604052806005548152602001868152602001858152602001848152602001838152506001600060055481526020019081526020016000206000820151816000015560208201518160010190805190602001906101bc929190610207565b5060408201518160020190805190602001906101d9929190610207565b506060820151816003015560808201518160040155905050600190506101ff565b600090505b949350505050565b828054600181600116156101000203166002900490600052602060002090601f016020900481019282601f1061024857805160ff1916838001178555610276565b82800160010185558215610276579182015b8281111561027557825182559160200191906001019061025a565b5b5090506102839190610287565b5090565b6102a991905b808211156102a557600081600090555060010161028d565b5090565b90565b6109a2806102bb6000396000f3fe608060405234801561001057600080fd5b50600436106100885760003560e01c8063702742b01161005b578063702742b014610274578063a035b1fe146102ba578063b564eaaa146102d8578063fbcb383a1461034157610088565b806306fdde031461008d57806313351db31461011057806324ce0381146102385780636b9aac9614610256575b600080fd5b610095610399565b6040518080602001828103825283818151815260200191508051906020019080838360005b838110156100d55780820151818401526020810190506100ba565b50505050905090810190601f1680156101025780820380516001836020036101000a031916815260200191505b509250505060405180910390f35b61013c6004803603602081101561012657600080fd5b8101908080359060200190929190505050610437565b604051808681526020018060200180602001858152602001848152602001838103835287818151815260200191508051906020019080838360005b83811015610192578082015181840152602081019050610177565b50505050905090810190601f1680156101bf5780820380516001836020036101000a031916815260200191505b50838103825286818151815260200191508051906020019080838360005b838110156101f85780820151818401526020810190506101dd565b50505050905090810190601f1680156102255780820380516001836020036101000a031916815260200191505b5097505050505050505060405180910390f35b61024061059d565b6040518082815260200191505060405180910390f35b61025e6105a3565b6040518082815260200191505060405180910390f35b6102a06004803603602081101561028a57600080fd5b81019080803590602001909291905050506105a9565b604051808215151515815260200191505060405180910390f35b6102c261084b565b6040518082815260200191505060405180910390f35b610324600480360360408110156102ee57600080fd5b81019080803573ffffffffffffffffffffffffffffffffffffffff16906020019092919080359060200190929190505050610851565b604051808381526020018281526020019250505060405180910390f35b6103836004803603602081101561035757600080fd5b81019080803573ffffffffffffffffffffffffffffffffffffffff16906020019092919050505061088f565b6040518082815260200191505060405180910390f35b60078054600181600116156101000203166002900480601f01602080910402602001604051908101604052809291908181526020018280546001816001161561010002031660029004801561042f5780601f106104045761010080835404028352916020019161042f565b820191906000526020600020905b81548152906001019060200180831161041257829003601f168201915b505050505081565b6001602052806000526040600020600091509050806000015490806001018054600181600116156101000203166002900480601f0160208091040260200160405190810160405280929190818152602001828054600181600116156101000203166002900480156104e95780601f106104be576101008083540402835291602001916104e9565b820191906000526020600020905b8154815290600101906020018083116104cc57829003601f168201915b505050505090806002018054600181600116156101000203166002900480601f0160208091040260200160405190810160405280929190818152602001828054600181600116156101000203166002900480156105875780601f1061055c57610100808354040283529160200191610587565b820191906000526020600020905b81548152906001019060200180831161056a57829003601f168201915b5050505050908060030154908060040154905085565b60065481565b60055481565b600060026006541015610841576006600081548092919060010191905055506105d06108a7565b60016000848152602001908152602001600020600101600790805460018160011615610100020316600290046106079291906108c1565b5060016000848152602001908152602001600020600301546008819055508281600001818152505060016000848152602001908152602001600020600301548160200181815250508060200151600360003373ffffffffffffffffffffffffffffffffffffffff1673ffffffffffffffffffffffffffffffffffffffff16815260200190815260200160002060008282540192505081905550600260003373ffffffffffffffffffffffffffffffffffffffff1673ffffffffffffffffffffffffffffffffffffffff168152602001908152602001600020819080600181540180825580915050906001820390600052602060002090600202016000909192909190915060008201518160000155602082015181600101555050507fb1c91bec4229db67331e0fa09df55891c62724de47ca7bfb64d5dc9b45621c976007600854600360003373ffffffffffffffffffffffffffffffffffffffff1673ffffffffffffffffffffffffffffffffffffffff1681526020019081526020016000205460065460405180806020018581526020018481526020018381526020018281038252868181546001816001161561010002031660029004815260200191508054600181600116156101000203166002900480156108265780601f106107fb57610100808354040283529160200191610826565b820191906000526020600020905b81548152906001019060200180831161080957829003601f168201915b50509550505050505060405180910390a16001915050610846565b600090505b919050565b60085481565b6002602052816000526040600020818154811061086a57fe5b9060005260206000209060020201600091509150508060000154908060010154905082565b60036020528060005260406000206000915090505481565b604051806040016040528060008152602001600081525090565b828054600181600116156101000203166002900490600052602060002090601f016020900481019282601f106108fa5780548555610937565b8280016001018555821561093757600052602060002091601f016020900482015b8281111561093657825482559160010191906001019061091b565b5b5090506109449190610948565b5090565b61096a91905b8082111561096657600081600090555060010161094e565b5090565b9056fea265627a7a723158209a536b136ce9e23e05021f082760fb8ec7de21c804d10a1b494b12f53eb40d8c64736f6c6343000510003257616c6c612057616c6c612056616c6c657920506f7765726c696e6520457374617465",
  "source": "// SPDX-License-Identifier: MIT\r\npragma solidity >=0.4.21 <0.7.0;\r\n\r\ncontract Shop{\r\n\r\n    address owner;\r\n    //@dev modifer allowing only owner of contract\r\n    modifier onlyOwner(){\r\n        require(msg.sender == owner,   \"not working\");\r\n        _;\r\n    }\r\n\r\n    //Data Structure -\r\n    //@dev creating a struct for wine inventory\r\n    struct WineList{\r\n        uint vin_ID;\r\n        string vin_Name;\r\n        string vin_Des;\r\n        uint vin_Price;\r\n        uint inv_Qty;\r\n    }\r\n    //@dev temporary cart struct\r\n    struct WineCart{\r\n        uint wineid;\r\n        uint wineprice;\r\n    }\r\n\r\n    //@dev Event triggers after new item added to cart\r\n    event addItemToCartEvent(string name, uint price, uint subtotal, uint cartItemsCount);\r\n    // event checkoutEvent (uint subtotal);\r\n\r\n    //Mapping -\r\n    mapping (uint => WineList) public wines;\r\n    mapping(address => WineCart[]) public cart;\r\n    mapping(address => uint) public subtotal;\r\n    mapping(address => uint) balance;\r\n\r\n    //Variable definitions -\r\n    uint public wineCount;\r\n    uint public cartitemCount;\r\n    string public name;\r\n    uint public price;\r\n\r\n    constructor() public {\r\n\r\n        owner = msg.sender;\r\n        //@dev List of Vino available.\r\n        /*Improvement Prop: Using oracles to retrive list of Vino from\r\n        distribution center*/\r\n        addWineItem(\"Duckhorn Merlot\", \"Napa Valley Three Palms Vineyard\",1 wei,1000);\r\n        addWineItem(\"K Syrah \", \"Walla Walla Valley Powerline Estate\",2 wei,1500);\r\n        // addWineItem(\"Château Coutet\", \"Barsac\",2 wei,2000);\r\n        // addWineItem(\"Casanova di Neri\", \"Brunello di Montalcino\",1 wei,2000);\r\n    }\r\n\r\n    //Functions -\r\n    function  addWineItem(string memory _name, string memory _des, uint _price, uint _qty) private returns (bool){\r\n        if(wineCount < 10){\r\n                wineCount++;\r\n        wines[wineCount] = WineList(wineCount, _name, _des, _price, _qty);\r\n        return true;\r\n        }\r\n        else{\r\n            return false;\r\n        }\r\n    }\r\n\r\n    function addToCart(uint _cart_item_id) public  returns (bool){\r\n        if(cartitemCount<2){\r\n        cartitemCount++;\r\n        //var newCartItem = cart[_cust];\r\n        WineCart memory newCartItem;\r\n        name = wines[_cart_item_id].vin_Name;\r\n        price = wines[_cart_item_id].vin_Price;\r\n        newCartItem.wineid = _cart_item_id;\r\n        newCartItem.wineprice = wines[_cart_item_id].vin_Price;\r\n        subtotal[msg.sender] += newCartItem.wineprice;\r\n        cart[msg.sender].push(newCartItem);\r\n\r\n        emit addItemToCartEvent(name,price,subtotal[msg.sender],cartitemCount);\r\n\r\n        return true;\r\n        }\r\n        else\r\n        return false;\r\n    }\r\n}",
  "sourcePath": "/mnt/c/Users/gulpr/OneDrive/Desktop/Sprint 24/sample_app/contracts/Shop.sol",
  "compiler": {
    "name": "solc",
    "version": "0.5.16+commit.9c3226ce.Emscripten.clang"
  },
  "schemaVersion": "3.2.3",
  "updatedAt": "2020-07-26T10:57:38.492Z",
  "devdoc": {
    "methods": {}
  },
  "userdoc": {
    "methods": {}
  }
}